:020000040800F2
:10000000C00500209D010008DB170008211600082C
:10001000D917000867040008BD1800080000000098
:10002000000000000000000000000000DF170008D2
:100030001905000800000000DD170008E11700089E
:10004000B7010008B7010008B7010008B7010008B0
:10005000B7010008B7010008B7010008B7010008A0
:10006000B7010008B7010008B7010008B701000890
:10007000B7010008B7010008B7010008B701000880
:10008000B7010008B7010008A9020008B70100087D
:10009000B7010008B7010008B7010008B701000860
:1000A000B7010008B7010008B7010008B701000850
:1000B000B7010008B7010008B7010008B701000840
:1000C000B7010008B7010008B7010008B701000830
:1000D000B7010008B7010008B7010008B701000820
:1000E0001B050008B7010008B7010008B7010008A8
:1000F000B7010008B7010008B7010008B701000800
:10010000B7010008B7010008B7010008B7010008EF
:10011000B7010008B7010008B7010008B7010008DF
:1001200069040008B7010008B7010008B70100081A
:10013000B7010008B7010008B7010008B7010008BF
:10014000B7010008B7010008B7010008B7010008AF
:10015000B7010008B7010008B7010008B70100089F
:10016000B7010008B7010008B7010008B70100088F
:10017000B7010008B7010008B7010008000000003F
:10018000B7010008B7010008DFF80CD000F07AF8DA
:1001900000480047FD180008C005002006488047B9
:1001A00006480047FEE7FEE7FEE7FEE7FEE7FEE75C
:1001B000FEE7FEE7FEE7FEE7691800088901000890
:1001C0002DE9F05F0546002092469B46884606468C
:1001D000814640241BE0284641464746224600F01F
:1001E00041F853465A46C01A914110D31146184659
:1001F000224600F028F82D1A67EB01084F462246E8
:100200000120002100F01FF817EB00094E41201ECD
:10021000A4F10104DFDC484631462A464346BDE8E6
:10022000F09FD2B201E000F8012B491EFBD27047CB
:100230000022F6E710B513460A4604461946FFF7B2
:10024000F0FF204610BD202A04DB203A00FA02F11C
:10025000002070479140C2F1200320FA03F31943B4
:1002600090407047202A04DB203A21FA02F0002156
:10027000704721FA02F3D040C2F1200291400843B6
:1002800019467047064C074D06E0E06840F0010350
:1002900094E8070098471034AC42F6D3FFF778FF94
:1002A000781900089819000810B5054800F08DFA73
:1002B000044800F08AFABDE81040034800F085BA0F
:1002C0001000002058000020A0000020464910B572
:1002D0004A6822F440324A604A6843681A434A60D6
:1002E00001684A6822F480724A6001684A680369BA
:1002F00042EA03224A6001684A6822F040724A607A
:1003000001684A6883681A434A6001688A6822F46F
:1003100000628A6001688A68C3681A438A60816AD9
:100320006FF07062D14201688A6822F070628A6060
:1003300001688A680CD0836A1A438A6001688A68F7
:1003400022F040528A6001688A68C36A1A4301E059
:1003500022F040528A6001688A6822F002028A60B4
:1003600001688A68037E42EA43028A6090F820109E
:10037000002901684A680FD042F400624A600168AF
:100380004A6822F460424A6001684A68174C436A2E
:1003900004EB43331A4301E022F400624A6001682F
:1003A000CA6A22F47002CA620168CA6A838B104C5E
:1003B00004EB03531A43CA6201688A6822F400728C
:1003C0008A6001688A6890F8303042EA43228A6085
:1003D00001688A6822F480628A6001688A684069DC
:1003E00042EA8020886010BD0023014000E0FFFF4A
:1003F0000000F0FF0146806B026C12F0500F03D03A
:10040000806BC26C08461047016C41F400710164B6
:1004100001688A6812F0405F17D1027EAAB9CA6AE1
:1004200012F4700F02D08A6852050ED44A6822F086
:1004300020024A60016C21F480710164016CC904DE
:1004400003D4016C41F00101016400F0BBB9806B81
:1004500040210164416C41F00401416400F0B4B9F1
:10046000806B00F0B0B9FEE7014800F06DBB000002
:100470006001002001681823CAB2103AB2FBF3F2FF
:10048000054B6FF30901032A9B5CC36500D9091D65
:1004900081650846704700006019000810B50146E4
:1004A00000208B698A6A4FF0C07453B1B3F5005FC6
:1004B00015D072B1012A0CD0022A0AD0032A09D120
:1004C00004E01AB1012A06D0022A03D1C96AC9017F
:1004D00000D5012010BDC96AA142FAD010BD002A82
:1004E000F7D0012AF2D0022AF3D0032AF3D010BDAC
:1004F00030B50468256825F48025256004686360AC
:100500008368402B036803D099600068C26030BDE7
:100510009A600068C16030BD70474FF4006000F021
:100520008BBC70477047000010B590F83C20012A42
:100530001FD0012200F83C2F0F4A536823F01F03FD
:10054000536053680C6823435360536823F440435B
:10055000536053684C6823435360536823F47063BB
:100560005360536889680B4353600021017008464B
:1005700010BD022010BD000000230140F8B5134655
:1005800000220446009290F83C00012807D0012088
:1005900084F83C0020688568ED0702D011E0022055
:1005A000F8BD856845F0010585602D482D4D006832
:1005B000B0FBF5F000EB400000E0401E009000288A
:1005C000FBD120688568ED0747D0256C40F20166B5
:1005D000B54345F4807525644068400505D5206C19
:1005E00020F4005040F480502064206CC00404D5F6
:1005F000606C20F00600606400E0626484F83C20D7
:10060000A26B1948D063A26B18481064A26B1848FB
:10061000D06422686FF0020010602068426842F0E7
:1006200080624260134894F83020002A426802D069
:1006300042F4005201E022F4005242600A460D49A1
:10064000A06B083100F0BAFB2068816811F0405FB0
:1006500003D1816841F0804181600020F8BD000035
:100660000C00002040420F00F50300086104000860
:100670004F0400080023014078B50024009490F84E
:100680003C20012A19D0012280F83C200A68072367
:100690000568092A13D9EE680A3A02EB4202934030
:1006A0009E43EE600B788A680A3B03EB43039A4053
:1006B0000368DD682A43DA6010E0022078BD2E6905
:1006C00002EB420293409E432E610B788A6803EB53
:1006D00043039A4003681D692A431A614A681F232D
:1006E000072A13D205686E6B521E02EB82029340FA
:1006F0009E436E630B790A885B1E92B203EB830301
:100700009A4003685D6B2A435A6327E005680D2A07
:1007100012D22E6BD21F02EB820293409E432E63B5
:100720000B790A88DB1F92B203EB83039A400368BC
:100730001D6B2A431A6311E0EE6A0D3A02EB820246
:1007400093409E43EE620B790A880D3B92B203EB15
:1007500083039A400368DD6A2A43DA62164B056810
:10076000144A9D4206D10D68122D03D1556845F4F7
:100770008005556005689D4218D10B68102B01D08B
:10078000112B13D1536843F40003536009681029F7
:100790000CD10A490A4A0968B1FBF2F101EB810167
:1007A000490000E0491E00910029FBD180F83C403F
:1007B000002078BD00230140002001400C000020F3
:1007C00040420F0070477047704770B5044600689C
:1007D00001684268C1F34001C2F3401251B34AB309
:1007E000216CC90603D4216C41F400712164816835
:1007F00011F0405F17D1217EA9B9C16A11F4700FC1
:1008000002D0816849050ED4416821F02001416081
:10081000206C20F480702064206CC00403D4206C11
:1008200040F0010020642046FFF7CCFF21686FF004
:1008300012000860206801684268C1F38001C2F3B9
:10084000C01289B382B3216CC90603D4216C41F470
:1008500000512164816811F4401F1ED1816B11F495
:10086000401F02D08168490517D44168490514D456
:10087000816811F0405F10D1217E71B9416821F08B
:1008800080014160206C20F480502064206CC00501
:1008900003D4206C40F0010020642046FFF742FEA4
:1008A00021686FF00C00086020680168426811F050
:1008B000010FC2F380120ED06AB10068C0070AD0DF
:1008C000206C40F480302064204600F046F8216817
:1008D0006FF001000860206801684268C1F34011B0
:1008E000C2F3806200290DD0002A0BD0616C41F068
:1008F000020161646FF0200505602046FFF764FF88
:100900002068056070BD70B504004FF0000503D08D
:10091000206C002610B107E0012070BD204600F0D9
:100920001DF8666484F83C60206CC00610D4206C0E
:1009300020F4885040F0020020642046FFF7C6FCF7
:100940006664206C20F0020040F00100206400E0AA
:10095000012584F83C60284670BD7047F0B587B02B
:10096000064614216846FFF763FC3648DFF8D0C01E
:10097000376800253349143801220324324B674578
:100980002ED10F6847F480770F60096801F48071F9
:100990000591016841F0010101600068694600F0BD
:1009A000010005908DE83400184600F051FA284CFB
:1009B0002648C4E900050015A560C4E9035080007D
:1009C00060618000A0618011C4E90705204665626E
:1009D00000F08AF908B1FFF7A4FDB463A6630AE04A
:1009E0001C4EB74211D10E6846F400760E600968BD
:1009F00001F4007113E000221146122000F074FB94
:100A0000122000F063FB07B0F0BD134EB742FAD1DD
:100A10000E6846F480660E60096801F480610591F5
:100A2000016841F0010101600068694600F00100C1
:100A300005908DE83400184600F00AFADBE7000064
:100A4000002001404438024000000240106402408F
:100A500060010020002101400022014018B5002162
:100A6000009190F83C20012A07D0012280F83C2018
:100A700002689368DB0702D011E0022018BD93687A
:100A800043F0010393602A4A2A4B1268B2FBF3F247
:100A900002EB420200E0521E0092002AFBD10268E3
:100AA0009368DB0741D0036C40F20164A34343F435
:100AB0008073036453685B0505D5036C23F400530E
:100AC00043F480530364036CDB0404D5436C23F0CC
:100AD0000603436400E0416480F83C1016496FF05F
:100AE0002203136049680068CA06144906D0884288
:100AF0001BD1816811F0405F13D016E08842F8D016
:100B00000F4A904203D1D1F80423D206F1D00D4A06
:100B100090420AD1D1F8041301F01F011029E8D343
:100B200003E0816841F080418160002018BD000031
:100B30000C00002040420F00002301400020014033
:100B400000210140002201402DE9F84304464FF006
:100B50000009CDF8009063484FF41651A56D006868
:100B6000B0FBF1F72E6894F85C10082000FA01F150
:100B700031420FD021680A6852070BD50A6822F06B
:100B800004020A6094F85C108840A860606D40F030
:100B90000100606594F85C104FF0010808FA01F05C
:100BA000304208D021684969090604D5A860606D03
:100BB00040F00200606594F85C10042088403042E8
:100BC00008D021680968890704D5A860606D40F0E5
:100BD0000400606594F85C1010208840304218D002
:100BE00021680968090714D5A860206801684903CD
:100BF00004D50068000308D5A16C07E00168C905A9
:100C000003D4016821F008010160216C09B120467C
:100C1000884794F85C1020208840304231D0216809
:100C20000968C9062DD5A86094F835000528206804
:100C3000016806D0490347D5006800031DD4616CE4
:100C40001CE021F0160101602068416921F080015B
:100C50004161206C08B9A06C20B12068016821F0C6
:100C60000801016094F85C103F208840A86084F877
:100C7000349084F83580216D1FE0E16B09B1204686
:100C80008847606D00282BD0606DC00714D0052008
:100C900084F835002068016821F0010101600098A6
:100CA000401C0090B84203D820680068C007F6D105
:100CB00084F8349084F83580E16C002910D001B0BC
:100CC0002046BDE8F04308470168C905D5D401684E
:100CD00021F01001016084F8349084F83580CCE76D
:100CE000BDE8F8830C0000202DE9F041044600F037
:100CF0008DF906465CB1002584F83450022084F852
:100D000035002068016821F0010101600DE001203B
:100D1000BDE8F08100F07AF9801B052805D9202074
:100D20006065032084F83500F2E720680068C0079A
:100D3000F0D12268116820480140D4E9010318432A
:100D4000D4E903363343184363691843A36918434E
:100D5000E3691843236A18430843616A042903D1ED
:100D6000D4E90B1319430843106020684069666A90
:100D700020F0070130460E43012704280CD1A06A59
:100D80000643E06A40B12046FFF788FB20B14020CF
:100D9000606584F83570BAE7206846612046FFF741
:100DA00069FB94F85C203F2191408160656584F87F
:100DB00035700020ACE700003F8010F02DE9F041D5
:100DC0000446866D90F83400002501280DD00120DE
:100DD00084F8340094F835700020012F07D084F88F
:100DE000340002252846BDE8F0810220FBE70227F7
:100DF00084F8357060652046FFF77AFB94F85C1044
:100E00003F208840B0602068016841F01601016011
:100E10002068416941F080014161206C20B1206867
:100E2000016841F0080101602068016841F001019A
:100E30000160D7E770470000044910B50A68024214
:100E400002D00860FFF7F6FF10BD0000143C01401F
:100E50002DE9F84FDFF87CB100224FF001084FF088
:100E6000030A4FF00F090BF1040E00BF0B6808FADC
:100E700002F42340A3426ED14D68022D01D0122D01
:100E80000ED1D50800EB850CDCF820505607F70E84
:100E900009FA07F6B5430E69BE402E43CCF8206030
:100EA000066855000F790AFA05FC07F0030726EAE1
:100EB0000C06AF40374307604E68012E05D0022E66
:100EC00003D0112E01D0122E0ED18668CF6826EAEB
:100ED0000C06AF40374387604668A6430C79C4F3DD
:100EE0000014944034434460C6688C6826EA0C06BB
:100EF000AC403443C4604C68E40065D5364C25688A
:100F000045F480452560246822F0030504F48044FC
:100F10000094324C2E19D6F8084895072F0F09FA7D
:100F200007F5AC432E4DA84201D1002524E02D4DFC
:100F3000A84201D101251FE02B4DA84201D1022575
:100F40001AE02A4DA84201D1032515E0284DA842F8
:100F500002D1042510E037E0264DA84201D1052535
:100F60000AE0254DA84201D1062505E0234DA842FF
:100F700001D1072500E00825BD402543C6F80858E3
:100F8000DBF800405D464E689C43F60300D51C43E9
:100F90002C60DEF8004075464E689C43B60300D5D1
:100FA0001C432C600B4D08352C684E689C43F602A0
:100FB00000D51C432C60074D0C352C684E689C43B3
:100FC000B60200D51C432C60521C102AFFF44EAF11
:100FD000BDE8F88F003C0140443802400030014039
:100FE000000002400004024000080240000C0240E1
:100FF000001002400014024000180240001C024091
:101000000AB1816170470904FBE70000014880686C
:1010100070470000000000200248816802781144F7
:1010200081607047000000200B4810B5016841F452
:1010300000710160016841F480610160016841F460
:1010400080710160032000F06FF8002000F006F8C6
:1010500000F024F8002010BD003C024070B50D4D9A
:1010600004464FF47A712878B1FBF0F00A49096818
:10107000B1FBF0F000F0C0FA48B9102C07D2002202
:101080002146501E00F030F800206C6070BD012039
:1010900070BD0000000000200C0000200A4808B5C8
:1010A000016841F480410160006800F480400090D4
:1010B0000548001F016841F080510160006800F0A0
:1010C0008050009008BD000044380240002809DB31
:1010D00000F01F02012191404009800000F1E02052
:1010E000C0F8001170470000F0B40E4B1B680C46AE
:1010F000C3F30223C3F10705042D00D90425191DEC
:10110000072901D2002300E0DB1E012606FA05F1C3
:10111000491E214099409E40761E16403143F0BC46
:1011200000F0CDBB0CED00E0064900F007020868B6
:101130004FF6FF03184040EA0220034A10430860BC
:10114000704700000CED00E00000FA052DE9F047C3
:101150000E46050065D0DFF81481D8F80000F7B21C
:1011600000F00F00B04207D288F80070D8F80000F5
:1011700000F00F00B04254D128683D4C810712D5D1
:10118000400703D5206840F4E0502060287800072D
:1011900003D5206840F4604020602068A96820F0F2
:1011A000F000084320602878C0072DD030496868D7
:1011B0000839012812D0022813D0032811D0096859
:1011C000890700292DDA216821F0030101432160FC
:1011D000FFF71CFF814641F2883A0EE00968890357
:1011E000EFE709688901ECE7FFF710FFA0EB0901C1
:1011F000514502D90320BDE8F0872068696800F0F6
:101200000C00B0EB810FEFD1D8F80010404601F090
:101210000F01B14207D90770006800F00F00B0421B
:1012200001D00120E7E72878400705D52068E96864
:1012300020F4E050084320602878000706D5206895
:10124000296920F4604040EAC100206000F016F8EF
:101250002168084AC1F30311515CC840064908607F
:101260000020FFF7FBFE0020C5E70000003C024025
:1012700008380240681900080C000020154810B515
:10128000006810F00C02144813D04110042A0FD04B
:10129000082A0ED10F4C241F2268236802F03F0257
:1012A0005B0207D52068C0F38810A0FB010106E0AF
:1012B000084610BD2168C1F38811A1FB000100237D
:1012C000FEF77EFF2168C1F30141491C4900B0FBD4
:1012D000F1F010BD083802400024F4002DE9F84F69
:1012E000050076D02878DFF8F8B2BE4CC00749D0A8
:1012F000DBF800105846C1F38101012908D00068CD
:10130000C0F3810002280AD1201D0068400206D5E2
:101310002068800336D568680028E2D032E068682B
:10132000B0F5803F10D0B0F5A02F206810D020F489
:1013300080302060206820F4802020606868A0B1A0
:10134000FFF764FE06460CE0206840F48030F4E7C6
:1013500040F480202060F7E7FFF758FE801B6428E8
:1013600073D820688003F7D50CE0FFF74FFE0646E0
:1013700005E000BFFFF74AFE801B6428F0D8206814
:101380008003F7D42878DFF8608280074FF00009E7
:101390003ED5DBF80010584611F00C0F09D000685C
:1013A000C0F3810002280BD18D48001F0068400265
:1013B00006D42068800715D5E868012809D111E016
:1013C000E868B8B10120C8F80000FFF71FFE064624
:1013D00005E002E1FFF71AFE801B0228C0D8206852
:1013E0008007F7D52068296920F0F80040EAC1009D
:1013F00020600DE0C8F80090FFF708FE064604E004
:10140000FFF704FE801B02281FD820688007F7D44E
:101410002878000722D5724E744869696C3671B11C
:1014200001210160FFF7F2FD074604E0FFF7EEFD42
:10143000C01B022809D830688007F7D50EE0C0F835
:101440000090FFF7E3FD074605E083E0FFF7DEFDD0
:10145000C01B02287ED830688007F7D42878400760
:1014600068D5DFF87CA100270AF1380ADAF8000015
:10147000C0000BD4DAF8001041F08051CAF8001017
:10148000DAF80000012700F080500090584E3068D4
:10149000C00510D4306840F480703060FFF7B6FDAE
:1014A000009005E0FFF7B2FD0099401A022851D8DC
:1014B0003068C005F6D54A4EA868683601280FD0B6
:1014C0000528306810D020F001003060306820F02E
:1014D00004003060A868B8B1FFF798FD00900FE0F5
:1014E000306840F00100F4E740F004003060F7E7B6
:1014F000FFF78CFD0099411A41F28830814264D88F
:1015000030688007F4D50EE0FFF780FD009007E01B
:10151000FFF77CFD0099411A41F28830814254D88E
:1015200030688007F4D42FB1DAF8001021F0805130
:10153000CAF80010A869C0B3DBF80010C1F381013C
:1015400002294AD00228484607D0C8F86000FFF7B1
:101550005DFD00E039E005463AE04746C8F8600026
:10156000FFF754FD064604E0FFF750FD801B0228FC
:101570002BD820688001F7D4D5E907010843A96A70
:101580001C4A490802EB01416A6A41EA8211084398
:1015900095F82C1040EA01611148001F01600120FC
:1015A0003866FFF733FD054605E014E0FFF72EFD32
:1015B000401B022809D820688001F7D50BE000BF46
:1015C000FFF724FD401B022802D90320BDE8F88F55
:1015D00020688001F4D40020F8E70120F6E700003D
:1015E000083802400038024000004742800E47425F
:1015F000007000400000FFFF10B5401EB0F1807F7A
:1016000001D3012010BD4FF0E02460610F2160176D
:1016100000F055F90020A06107202061002010BDD6
:10162000FEE7000030B587B0002418480594069402
:10163000049400940194029413490394C0E90014A3
:10164000846001250461057680F820402907C16285
:10165000C5614FF07061C460816280F830404561BF
:10166000FFF751F917200490E803CDE9050404A918
:101670000648FEF759FFCDE9004569460348029444
:10168000FEF7FAFF07B030BD002001401000002037
:101690007FB500240F480094019402940C490394F0
:1016A000C0E9001484600461047680F820400125BC
:1016B000C561C46080F830404561FFF724F9CDE989
:1016C0000045694603480294FEF7D6FF7FBD00003F
:1016D00000210140580000207FB500240F480094ED
:1016E000019402940C490394C0E9001484600461DD
:1016F000047680F820400125C561C46080F8304040
:101700004561FFF700F9CDE90045694603480294B9
:10171000FEF7B2FF7FBD000000220140A0000020C4
:1017200070B586B014216846FEF782FD2648002475
:10173000016841F080010160016801F080010591BC
:10174000016841F001010160016801F001010591AA
:10175000016841F010010160016801F0100105917C
:10176000016841F0080101600068184E00F00800AF
:101770000590002221213046FFF742FCF014009032
:101780001348CDE9010469461248FFF761FB0320C5
:10179000CDE9024001250095694601953046FFF7E5
:1017A00057FB20200090CDE9015469463046039450
:1017B000FFF74EFB002211462820FFF795FC28205A
:1017C000FFF784FC06B070BD30380240000C0240C8
:1017D0000000111000100240FEE77047704770478C
:1017E000FFF71ABC30B593B030216846FEF720FDF4
:1017F00014210CA8FEF71CFD19480025016841F0D2
:1018000080510160006800F0805011901548016817
:1018100041F4804101600068022400F4804011908E
:1018200001200090000401908001CDE9064008AA43
:101830000420902182E813000B906846FFF74EFDCC
:101840000CA90F2081E831004FF4A0500F90E00266
:10185000109004210CA8FFF779FC13B030BD0000F4
:1018600040380240007000401048016841F47001A7
:1018700001600F48016841F0010101600C4A00213C
:101880000832116002680B4B1A400260031D0A4ABD
:101890001A60026822F48022026005480C30016060
:1018A00002495806803908607047000088ED00E062
:1018B00000380240FFFFF6FE10300024FEE7090763
:1018C000090E002804DB00F1E02080F800147047C6
:1018D00000F00F0000F1E02080F8141D704702E0D6
:1018E00008C8121F08C1002AFAD1704770470020AB
:1018F00001E001C1121F002AFBD1704708B5FFF7B4
:1019000093FBFFF76FFFFFF70BFF1348016841F4EC
:10191000800101600068002200F480000090114600
:101920003820FFF7E1FB3820FFF7D0FBFFF77AFE06
:10193000FFF7AEFEFFF7D0FE0848FFF78FF8074825
:101940004838FFF78BF805491E224831A1F1D8002D
:10195000FEF714FEFEE7000030380240A000002031
:10196000000610160006101600000000000000001F
:101970000102030406070809981900080000002066
:1019800010000000DE180008A81900081000002050
:10199000B0050000EE180008010000001000000073
:0819A000000000000024F40027
:040000050800018965
:00000001FF
