:020000040800F2
:10000000904300209D01000883270008092500086F
:10001000812700080D070008854200080000000045
:10002000000000000000000000000000C5290008DA
:10003000E50800080000000047290008C929000859
:10004000B7010008B7010008B7010008B7010008B0
:10005000B7010008B7010008B7010008B7010008A0
:10006000B7010008B7010008B7010008B701000890
:10007000B7010008B7010008B7010008B701000880
:10008000B7010008B701000805050008B70100081E
:10009000B7010008B7010008B7010008B701000860
:1000A000B7010008B7010008B7010008B701000850
:1000B000B7010008B7010008B7010008B701000840
:1000C000B7010008B7010008B7010008B701000830
:1000D000B7010008B7010008B7010008B701000820
:1000E000E9080008B7010008B7010008B7010008D7
:1000F000B7010008B7010008B7010008B701000800
:10010000B7010008B7010008B7010008B7010008EF
:10011000B7010008B7010008B7010008B7010008DF
:1001200035080008B7010008B7010008B70100084A
:10013000B7010008B7010008B7010008B7010008BF
:10014000B7010008B7010008B7010008BD27000883
:10015000B7010008B7010008B7010008B70100089F
:10016000B7010008B7010008B7010008B70100088F
:10017000B7010008B7010008B7010008000000003F
:10018000B7010008B7010008DFF80CD000F08CF8C8
:100190000048004715430008904300200648804768
:1001A00006480047FEE7FEE7FEE7FEE7FEE7FEE75C
:1001B000FEE7FEE7FEE7FEE7992A0008890100084E
:1001C0002DE9F05F0546002092469B46884606468C
:1001D000814640241BE0284641464746224600F01F
:1001E00020F853465A46C01A914110D3114618467A
:1001F000224600F04AF82D1A67EB01084F462246C6
:100200000120002100F041F817EB00094E41201EAB
:10021000A4F10104DFDC484631462A464346BDE8E6
:10022000F09F202A04DB203A21FA02F000217047D7
:1002300021FA02F3D040C2F120029140084319464E
:10024000704740EA01039B0703D009E008C9121F69
:1002500008C0042AFAD203E011F8013B00F8013B80
:10026000521EF9D27047D2B201E000F8012B491EAC
:10027000FBD270470022F6E710B513460A46044643
:100280001946FFF7F0FF204610BD202A04DB203A74
:1002900000FA02F1002070479140C2F1200320FAD9
:1002A00003F3194390407047064C074D06E0E068A1
:1002B00040F0010394E8070098471034AC42F6D3AD
:1002C000FFF766FF0C4400082C44000870B58C183A
:1002D00010F8015B15F0070301D110F8013B2A115A
:1002E00006D110F8012B03E010F8016B01F8016B47
:1002F0005B1EF9D12B0705D40023521E0DD401F843
:10030000013BFAE710F8013BCB1A921C03E013F80B
:10031000015B01F8015B521EF9D5A142D8D3002040
:1003200070BD000070B5194D00246879012822D0F5
:1003300002F008F902F048F902F070F9144800F0F0
:10034000C5FD08B100F0DCFA1148483800F0BEFDE8
:1003500008B100F0D5FA0D4E0D480C3E9038B28829
:10036000296800F00DFB08B100F0CAFA012068719D
:10037000EC80747070BD0648A5214830017044704F
:10038000BDE87040022100F0F1B900000C0000202F
:100390003002002010B5124C6079B0B1114800F065
:1003A0006DFB08B100F0ACFA0E48483000F004FED6
:1003B00008B100F0A5FA0B48903000F0FDFD08B13F
:1003C00000F09EFA0020607110BD0648A521D830CB
:1003D000017001214170BDE81040022100F0C6B952
:1003E0000C000020A00100200A4808B5552101702A
:1003F000002141700220009007480B4602218288AC
:10040000044802F0BFF9BDE808400421014800F0AB
:10041000ADB90000780200200000002007489521B7
:10042000017007494979012905D003214170022152
:10043000024800F09BB90221F8E700007802002092
:100440000C000020F8B52D4C2079012805D06079EA
:10045000012852D1E08864284FD9284D00260C3D50
:1004600026716E70264800F009FB08B100F048FACA
:100470002348483000F0A0FD08B100F041FA2048C0
:10048000903000F099FD08B100F03AFA1C4866710E
:10049000D830552100F8011B012700F8017BA988FD
:1004A0004A002168FFF7CDFEA888022101EB400039
:1004B00081B21348D83003F0B5FE8DF8000002F089
:1004C00041F802F081F802F0A9F80D48903000F0F0
:1004D000FDFC08B100F014FA0948483000F0F6FCC1
:1004E00008B100F00DFAAA880548216800F048FA22
:1004F00008B100F005FA6771E680F8BD0C00002035
:10050000A001002010B5054800F096FB044800F05B
:1005100093FBBDE81040034800F08EBBA001002013
:10052000E801002030020020464910B54A6822F454
:1005300040324A604A6843681A434A6001684A6820
:1005400022F480724A6001684A68036942EA032221
:100550004A6001684A6822F040724A6001684A684D
:1005600083681A434A6001688A6822F400628A60DC
:1005700001688A68C3681A438A60816A6FF0706292
:10058000D14201688A6822F070628A6001688A68D4
:100590000CD0836A1A438A6001688A6822F040524C
:1005A0008A6001688A68C36A1A4301E022F04052F7
:1005B0008A6001688A6822F002028A6001688A689B
:1005C000037E42EA43028A6090F820100029016805
:1005D0004A680FD042F400624A6001684A6822F417
:1005E00060424A6001684A68174C436A04EB43332F
:1005F0001A4301E022F400624A600168CA6A22F4E8
:100600007002CA620168CA6A838B104C04EB035300
:100610001A43CA6201688A6822F400728A6001681B
:100620008A6890F8303042EA43228A6001688A681A
:1006300022F480628A6001688A68406942EA802008
:10064000886010BD0023014000E0FFFF0000F0FFC4
:100650000146806B026C12F0500F03D0806BC26CAD
:1006600008461047016C41F40071016401688A6812
:1006700012F0405F17D1027EAAB9CA6A12F4700F55
:1006800002D08A6852050ED44A6822F020024A60DD
:10069000016C21F480710164016CC90403D4016C04
:1006A00041F00101016400F0BFBA806B4021016498
:1006B000416C41F00401416400F0BDBA806B00F070
:1006C000B9BA000070B5104E05460C467079012885
:1006D00004D0B5F5806F03D9032004E0022002E0C6
:1006E000032D03D204200870A52070BD306803F0EC
:1006F000E9FD680003F048FE306003480C3885804F
:1007000001202070952070BD0C000020FEE7002025
:10071000704700207047000010B5002204490548CA
:1007200002F0D8FA0449034802F0CEFA002010BDC6
:100730008C1B0020E80A00208C13002010B5044612
:10074000074802F0A5FA08222146064800F045F8BD
:1007500018B905480168491C0160002010BD00005F
:10076000E80A0020780A002008000020094A10B595
:10077000D2F89022D2F814220AB1012010BD0A4604
:100780000146044802F0A6FABDE81040014802F014
:10079000FFBA0000E80A0020002202604260C0E9BF
:1007A000021270472DE9F041044600680B4600260E
:1007B00080B1016801261846FFF743FD2568D5E999
:1007C000000703F07FFD284603F07CFD2760E0680A
:1007D000401EE0603046BDE8F0812DE9F04104465E
:1007E0001646D4E9022088460021904202DB0846E2
:1007F000BDE8F081401CE0600127304603F0C4FDF5
:10080000054632464146FFF71CFD206850B10820DE
:10081000666803F0B9FD05607168416070606060F2
:100820003846E5E7082003F0AFFD0021C0E900519C
:100830002060F4E7014800F025BC0000880A002091
:1008400001681823CAB2103AB2FBF3F2054B6FF3FA
:100850000901032A9B5CC36500D9091D816508460F
:1008600070470000F443000810B5014600208B6972
:100870008A6A4FF0C07453B1B3F5005F15D072B1FE
:10088000012A0CD0022A0AD0032A09D104E01AB1A5
:10089000012A06D0022A03D1C96AC90100D5012064
:1008A00010BDC96AA142FAD010BD002AF7D0012AB2
:1008B000F2D0022AF3D0032AF3D010BD30B5046879
:1008C000256825F480252560046863608368402BD3
:1008D000036803D099600068C26030BD9A60006808
:1008E000C16030BD7047000010B54FF4006000F0EB
:1008F00053FD02480178491C017010BD0100002021
:1009000010B54FF40041064800F02AFE0548A52125
:10091000017006214170BDE810400221FFF726BF9B
:10092000000C0240780200207047000010B590F8DB
:100930003C20012A1FD0012200F83C2F0F4A5368A7
:1009400023F01F03536053680C68234353605368BC
:1009500023F44043536053684C6823435360536807
:1009600023F470635360536889680B43536000211C
:100970000170084610BD022010BD00000023014098
:10098000F8B5134600220446009290F83C00012876
:1009900007D0012084F83C0020688568ED0702D06C
:1009A00011E00220F8BD856845F0010585602D48FD
:1009B0002D4D0068B0FBF5F000EB400000E0401E5C
:1009C00000900028FBD120688568ED0747D0256C92
:1009D00040F20166B54345F48075256440684005E2
:1009E00005D5206C20F4005040F480502064206C29
:1009F000C00404D5606C20F00600606400E062640E
:100A000084F83C20A26B1948D063A26B184810648C
:100A1000A26B1848D06422686FF002001060206852
:100A2000426842F080624260134894F83020002A05
:100A3000426802D042F4005201E022F400524260C7
:100A40000A460D49A06B083100F056FC2068816809
:100A500011F0405F03D1816841F080418160002046
:100A6000F8BD00008000002040420F005106000841
:100A7000BD060008AB0600080023014010B504467F
:100A8000002094F83C1001290DD0012184F83C107D
:100A900021688A6822F001028A6022680E49926801
:100AA000D20702D013E0022010BD486820F40050A5
:100AB0004860A06B00F09EFA21684A6822F08062CC
:100AC0004A60216C21F4885141F001012164002128
:100AD00084F83C1010BD00000023014078B50024CC
:100AE000009490F83C20012A19D0012280F83C2083
:100AF0000A6807230568092A13D9EE680A3A02EB47
:100B0000420293409E43EE600B788A680A3B03EBF7
:100B100043039A400368DD682A43DA6010E002204C
:100B200078BD2E6902EB420293409E432E610B7802
:100B30008A6803EB43039A4003681D692A431A61DC
:100B40004A681F23072A13D205686E6B521E02EBF8
:100B5000820293409E436E630B790A885B1E92B2B9
:100B600003EB83039A4003685D6B2A435A6327E0D3
:100B700005680D2A12D22E6BD21F02EB820293401F
:100B80009E432E630B790A88DB1F92B203EB83032B
:100B90009A4003681D6B2A431A6311E0EE6A0D3A0E
:100BA00002EB820293409E43EE620B790A880D3B72
:100BB00092B203EB83039A400368DD6A2A43DA6248
:100BC000164B0568144A9D4206D10D68122D03D1BB
:100BD000556845F48005556005689D4218D10B683D
:100BE000102B01D0112B13D1536843F40003536031
:100BF000096810290CD10A490A4A0968B1FBF2F1C7
:100C000001EB8101490000E0491E00910029FBD160
:100C100080F83C40002078BD0023014000200140C6
:100C20008000002040420F000149012008717047F8
:100C30000C0000207047704770B5044600680168DA
:100C40004268C1F34001C2F3401251B34AB3216C70
:100C5000C90603D4216C41F400712164816811F04C
:100C6000405F17D1217EA9B9C16A11F4700F02D07B
:100C7000816849050ED4416821F020014160206C53
:100C800020F480702064206CC00403D4206C40F0F9
:100C9000010020642046FFF7C7FF21686FF01200B3
:100CA0000860206801684268C1F38001C2F3C01285
:100CB00089B382B3216CC90603D4216C41F400517D
:100CC0002164816811F4401F1ED1816B11F4401F13
:100CD00002D08168490517D44168490514D4816858
:100CE00011F0405F10D1217E71B9416821F080017F
:100CF0004160206C20F480502064206CC00503D437
:100D0000206C40F0010020642046FFF70DFE2168B2
:100D10006FF00C00086020680168426811F0010F54
:100D2000C2F380120ED06AB10068C0070AD0206CEE
:100D300040F480302064204600F046F821686FF0CF
:100D400001000860206801684268C1F34011C2F3E5
:100D5000806200290DD0002A0BD0616C41F00201A5
:100D600061646FF0200505602046FFF764FF20688E
:100D7000056070BD70B504004FF0000503D0206C15
:100D8000002610B107E0012070BD204600F01EF8DB
:100D9000666484F83C60206CC00610D4206C20F49B
:100DA000885040F0020020642046FFF7BDFB6664D7
:100DB000206C20F0020040F00100206400E00125DA
:100DC00084F83C60284670BD70470000F0B587B0DD
:100DD000064614216846FFF74DFA3648DFF8D0C0C2
:100DE000376800253349143801220324324B674504
:100DF0002ED10F6847F480770F60096801F4807185
:100E00000591016841F0010101600068694600F048
:100E1000010005908DE83400184600F0C9FA284C0E
:100E20002648C4E900050015A560C4E90350800008
:100E300060618000A0618011C4E9070520466562F9
:100E400000F0F0F908B1FFF75BFDB463A6630AE0B8
:100E50001C4EB74211D10E6846F400760E60096848
:100E600001F4007113E000221146122000F0F2FBA1
:100E7000122000F0E1FB07B0F0BD134EB742FAD1EB
:100E80000E6846F480660E60096801F48061059181
:100E9000016841F0010101600068694600F001004D
:100EA00005908DE83400184600F082FADBE7000078
:100EB000002001404438024000000240106402401B
:100EC000880A0020002101400022014018B50021BD
:100ED000009190F83C20012A07D0012280F83C20A4
:100EE00002689368DB0702D011E0022018BD936806
:100EF00043F0010393602A4A2A4B1268B2FBF3F2D3
:100F000002EB420200E0521E0092002AFBD102686E
:100F10009368DB0741D0036C40F20164A34343F4C0
:100F20008073036453685B0505D5036C23F4005399
:100F300043F480530364036CDB0404D5436C23F057
:100F40000603436400E0416480F83C1016496FF0EA
:100F50002203136049680068CA06144906D0884213
:100F60001BD1816811F0405F13D016E08842F8D0A1
:100F70000F4A904203D1D1F80423D206F1D00D4A92
:100F800090420AD1D1F8041301F01F011029E8D3CF
:100F900003E0816841F080418160002018BD0000BD
:100FA0008000002040420F0000230140002001404B
:100FB000002101400022014090F83C1001290CD092
:100FC000012180F83C1001688A6822F001028A60E1
:100FD00001688968C90702D007E002207047016CE8
:100FE00021F4885141F001010164002180F83C1096
:100FF000084670472DE9F0410446876D00F0BCFAC1
:10100000064694F835000025022806D08020606549
:1010100084F834500120BDE8F0812068016821F097
:10102000160101602068416921F080014161206C56
:1010300008B9A06C20B12068016821F008010160A6
:101040002068016821F0010101600BE000F094FAD2
:10105000801B052806D92020606504F8345F032032
:101060006070D8E720680068C007EFD194F85C1082
:101070003F208840B86004F8345F01206070002091
:10108000C9E700002DE9F84304464FF00009CDF808
:10109000009063484FF41651A56D0068B0FBF1F75E
:1010A0002E6894F85C10082000FA01F131420FD04C
:1010B00021680A6852070BD50A6822F004020A6008
:1010C00094F85C108840A860606D40F00100606595
:1010D00094F85C104FF0010808FA01F0304208D093
:1010E00021684969090604D5A860606D40F00200D6
:1010F000606594F85C1004208840304208D0216874
:101100000968890704D5A860606D40F00400606537
:1011100094F85C1010208840304218D0216809688B
:10112000090714D5A86020680168490304D5006840
:10113000000308D5A16C07E00168C90503D4016864
:1011400021F008010160216C09B12046884794F81C
:101150005C1020208840304231D021680968C906DF
:101160002DD5A86094F8350005282068016806D0C0
:10117000490347D5006800031DD4616C1CE021F0D1
:10118000160101602068416921F080014161206CF5
:1011900008B9A06C20B12068016821F00801016045
:1011A00094F85C103F208840A86084F8349084F85C
:1011B0003580216D1FE0E16B09B120468847606DE5
:1011C00000282BD0606DC00714D0052084F83500AE
:1011D0002068016821F0010101600098401C009026
:1011E000B84203D820680068C007F6D184F834906C
:1011F00084F83580E16C002910D001B02046BDE8AC
:10120000F04308470168C905D5D4016821F01001F1
:10121000016084F8349084F83580CCE7BDE8F88329
:10122000800000202DE9F041044600F0A5F90646B3
:101230005CB1002584F83450022084F83500206821
:10124000016821F0010101600DE00120BDE8F0819D
:1012500000F092F9801B052805D920206065032045
:1012600084F83500F2E720680068C007F0D12268F2
:10127000116820480140D4E901031843D4E903363A
:101280003343184363691843A3691843E369184358
:10129000236A18430843616A042903D1D4E90B1374
:1012A00019430843106020684069666A20F007010E
:1012B00030460E43012704280CD1A06A0643E06A99
:1012C00040B12046FFF7D0FA20B14020606584F895
:1012D0003570BAE7206846612046FFF7B1FA94F806
:1012E0005C203F2191408160656584F83570002065
:1012F000ACE700003F8010F02DE9F0410446866D18
:1013000090F83400002501280DD0012084F8340025
:1013100094F835700020012F07D084F8340002259E
:101320002846BDE8F0810220FBE7022784F83570EB
:1013300060652046FFF7C2FA94F85C103F208840B1
:10134000B0602068016841F01601016020684169C1
:1013500041F080014161206C20B12068016841F0BA
:10136000080101602068016841F001010160D7E7D0
:1013700070B5044600F000F90546601C02D0044830
:101380000078044400F0F8F8401BA042FAD370BD86
:101390007400002070470000044910B50A6802423A
:1013A00002D00860FFF7F6FF10BD0000143C0140BA
:1013B0002DE9F84FDFF87CB100224FF001084FF023
:1013C000030A4FF00F090BF1040E00BF0B6808FA77
:1013D00002F42340A3426ED14D68022D01D0122D9C
:1013E0000ED1D50800EB850CDCF820505607F70E1F
:1013F00009FA07F6B5430E69BE402E43CCF82060CB
:10140000066855000F790AFA05FC07F0030726EA7B
:101410000C06AF40374307604E68012E05D0022E00
:1014200003D0112E01D0122E0ED18668CF6826EA85
:101430000C06AF40374387604668A6430C79C4F377
:101440000014944034434460C6688C6826EA0C0655
:10145000AC403443C4604C68E40065D5364C256824
:1014600045F480452560246822F0030504F4804497
:101470000094324C2E19D6F8084895072F0F09FA18
:1014800007F5AC432E4DA84201D1002524E02D4D97
:10149000A84201D101251FE02B4DA84201D1022510
:1014A0001AE02A4DA84201D1032515E0284DA84293
:1014B00002D1042510E037E0264DA84201D10525D0
:1014C0000AE0254DA84201D1062505E0234DA8429A
:1014D00001D1072500E00825BD402543C6F808587E
:1014E000DBF800405D464E689C43F60300D51C4384
:1014F0002C60DEF8004075464E689C43B60300D56C
:101500001C432C600B4D08352C684E689C43F6023A
:1015100000D51C432C60074D0C352C684E689C434D
:10152000B60200D51C432C60521C102AFFF44EAFAB
:10153000BDE8F88F003C01404438024000300140D3
:10154000000002400004024000080240000C02407B
:10155000001002400014024000180240001C02402B
:10156000426931EA020200D10904816170470AB17F
:10157000816170470904FBE70148806870470000FB
:10158000740000200248816802781144816070472D
:10159000740000200B4810B5016841F4007101602F
:1015A000016841F480610160016841F4807101606B
:1015B000032000F06FF8002000F006F800F024F897
:1015C000002010BD003C024070B50D4D04464FF4A4
:1015D0007A712878B1FBF0F00A490968B1FBF0F0A4
:1015E00000F07EFF48B9102C07D200222146501E81
:1015F00000F030F800206C6070BD012070BD00006C
:1016000074000020800000200A4808B5016841F4F9
:1016100080410160006800F4804000900548001F90
:10162000016841F080510160006800F08050009036
:1016300008BD000044380240002809DB00F01F020A
:10164000012191404009800000F1E020C0F8001124
:1016500070470000F0B40E4B1B680C46C3F3022326
:10166000C3F10705042D00D90425191D072901D24E
:10167000002300E0DB1E012606FA05F1491E214089
:1016800099409E40761E16403143F0BC02F0FBBDEF
:101690000CED00E0064900F0070208684FF6FF0372
:1016A000184040EA0220034A1043086070470000D7
:1016B0000CED00E00000FA05704700684162002070
:1016C0007047F0B50368586A39B19C6A4FF4827666
:1016D00000EB144400204D1E0AE040EA02409862EC
:1016E0000FE006EB8007DF59401C04EB1744C0B243
:1016F000A842F6D344EA02404FF4807202EB810123
:1017000058500020F0BDD0F8040401F094BDC1EBA6
:10171000C10200EB8202D0F80404926C01F0E7BC35
:10172000C1EBC10200EB8202D0F80404D2F8082217
:1017300001F040BDD0F8040401F07FBD70B504464F
:101740000B0601F00F00C0EBC00104EB81014FF06C
:1017500001024FF0000503D581F83D203C3103E044
:1017600081F8FD5101F5FE71087094F8BC03012861
:1017700008D084F8BC23206802F0D6F884F8BC5363
:10178000002070BD022070BD70B5044601F00F004E
:101790006268904201D9012070BD0B0601F00F0173
:1017A000C1EBC10104EB81014FF001024FF00005D4
:1017B00003D581F83D203C3103E081F8FD5101F56E
:1017C000FE718D70087094F8BC03012808D084F86D
:1017D000BC23206802F084FA84F8BC53002070BD5A
:1017E000022070BD01F00F01C1EBC10100EB8100CF
:1017F000D0F8140270472DE9F04104460F0601F0BD
:101800000F00C0EBC00104EB81014FF001064FF067
:10181000000503D581F83D603C3103E081F8FD51BE
:1018200001F5FE7108708A60CB704A7802B1C880F9
:10183000022B00D10D7194F8BC03012809D084F863
:10184000BC63206801F0C0FF284684F8BC53BDE8A3
:10185000F0810220FBE770B50C4601F00F05C5EBE7
:10186000C50100EB8101C1F81032C1F80822002344
:10187000C1F8143281F8FD3181F8FC51036901F59A
:10188000FE71012B00D10A612207027C006803D09F
:1018900002F07EFA002070BD02F06AF9FAE770B536
:1018A00004460D4601F00F006168884201D901200D
:1018B00070BD29064FF000064FF0010207D5C0EBBE
:1018C000C00104EB810181F83D203C3107E0C5EB0C
:1018D000C50104EB810181F8FD6101F5FE718A709B
:1018E000087094F8BC03012807D084F8BC23206852
:1018F00002F022FA280702D007E0022070BD217C06
:1019000004F57172206802F0BFF984F8BC6300200E
:1019100070BD70B50C4601F00F05C5EBC50100EBBD
:1019200081010B658A6400234B65012381F83D30FA
:1019300001F83C5F0369012B00D10A612207027C98
:10194000006803D002F024FA002070BD02F010F904
:10195000FAE700002DE9FC5F05680446284602F01E
:1019600040FB00287ED1206802F0AEFB002879D031
:10197000206802F0A9FB800704D52068416901F0C6
:1019800002014161206802F09FFB010304F57170C0
:101990004FF0010A4FF0080B009075D50026206823
:1019A00002F071FB0746DFF808946BE0F80767D098
:1019B000F1B2206802F080FB8046C00707D005EB3B
:1019C0004611C1F808AB3146204600F0FDFE5FEA43
:1019D000087032D52068016C00EB46100191D0F8F8
:1019E000081B2269012A019A0FD0F24B9A4214D1A6
:1019F000090403D54FF40041C0F8081B204600F04D
:101A0000D3FA206901280FD013E04A4505D909040B
:101A100003D54FF40041C0F8081B204600F0C4FA7B
:101A200001984845EDD804E020680121009A02F0B1
:101A30002BF905EB4611C1F808BB5FEAC86004D575
:101A400005EB46111020C1F8080B5FEA88600ED53F
:101A50002069012804D120680121009A02F014F9BC
:101A6000202100E0A1E105EB4610C0F8081B5FEA69
:101A7000884005D505EB46104FF40051C0F8081B0F
:101A80007F08761C002F91D1206802F01DFB4003D7
:101A90004FF000095FD5206802F0EEFA07460026F5
:101AA00057E0F80753D0F1B2206802F0F3FA80460D
:101AB000C00726D006F00F020AFA02F0D5F8342843
:101AC0008243C5F8342805EB4610C0F808A9206900
:101AD000012807D1C6EBC60004EB8000D0E9112134
:101AE00011448164F1B22046FFF711FE20690128FC
:101AF00007D136B9206D20B920680121009A02F083
:101B0000C3F85FEA087003D505EB4611C1F808B9C0
:101B10005FEAC86004D505EB46111020C1F808093A
:101B20005FEA486004D505EB46104021C0F808196B
:101B30005FEA887004D505EB46100221C0F8081949
:101B40005FEA086003D53146204600F0ABFE7F080F
:101B5000761C002FA5D1206802F0B6FA002811DA11
:101B6000D5F8040820F00100C5F8040894F8F4033F
:101B700001282BD0204600F0FBF92068416901F0D4
:101B800000414161206802F09FFA00050BD5D5F8AD
:101B90000808C00702D0204600F02EFA20684169EC
:101BA00001F400614161206802F08EFAC00461D541
:101BB000D5F8040820F00101C5F8041810212068A8
:101BC00002F0F0F900214FF67F321AE084F8F49326
:101BD00000212046FFF770FDCFE700BF05EB411065
:101BE000C0F80829D0F8003923F40013C0F80039F0
:101BF000C0F8082BD0F8003B23F40013C0F8003BDA
:101C0000491C60688842E9D8D5F81C0840F00111E9
:101C1000C5F81C18206B002828460DD0D0F8840881
:101C200040F00B00C5F88408D5F8440840F00B01DB
:101C30002846C5F844180DE0D0F8140842F22B01EC
:101C40000843C5F81408D5F8100840F00B012846E1
:101C5000C5F81018D0F8000820F4FE61C5F8001887
:101C6000217C2068009A02F00FF82068416901F495
:101C700080514161206802F027FA800415D5206860
:101C800001F0E2FD206802F09FF9E06000F064FAE4
:101C90000146227B206802F051FA204600F052F9FA
:101CA0002068416901F400514161206802F00CFA9A
:101CB000C00634D52068816921F0100181612F6A46
:101CC00007F00F00C0EBC00004EB8006C7F34340F1
:101CD00006F5FE76022802D0062811D01AE047F653
:101CE000F070074216D0C7F30A1217462846F1686B
:101CF00002F0EEF9F0683844F060B069384408E06A
:101D000008222846009902F0E3F9B069C7F30A11E6
:101D10000844B0612168886940F01000886120683B
:101D200002F0D2F9000707D5204600F025F9216816
:101D3000486900F008004861206802F0C5F9C00257
:101D400008D50021204600F037F82168486900F4E2
:101D500080104861206802F0B7F9800208D50021A0
:101D6000204600F02DF82168486900F40010486111
:101D7000206802F0A9F9400007D52046FFF7C3FC10
:101D80002068416901F080414161206802F09CF9BE
:101D900040070AD520684568680702D52046FFF746
:101DA000C9FC2068416829434160BDE8FC9F0000F0
:101DB0000A30544F0A31544FD0F8040401F08CBA61
:101DC000D0F8040401F08ABA2DE9F0418AB0040089
:101DD00005D094F8BD032668002520B108E0012055
:101DE0000AB0BDE8F08184F8BC53204600F05EF8EC
:101DF000032084F8BD03F06BC00500D42561206882
:101E000001F0B0FE04F11001282288466846FEF772
:101E100018FA94E80F0001F031FD0226C8BB00213A
:101E2000206802F063F9002001270EE0C0EBC0013A
:101E300004EB810181F83D7001F83C0FC880CD7042
:101E40008D60CD60401CC0B24D6161688142EDD8AB
:101E5000002011E0C0EBC00104EB810181F8FD51CD
:101E600081F8FC0181F8FF51C1F80452C1F8085211
:101E7000401CC0B2C1F8105261688142EAD82822E1
:101E800041466846FEF7DDF994E80F0001F0A4FD35
:101E900010B184F8BD63A2E784F8385084F8BD73AC
:101EA000206801F08DFD00209AE7000030B587B072
:101EB000044614216846FEF7DDF92068B0F1A04F12
:101EC00039D11E480024016841F001010160006819
:101ED0001B4D00F0010005904FF40070CDE90004A7
:101EE000694628460294FFF763FA4FF4C050009009
:101EF0000220CDE90104032003900A2004906946E2
:101F00002846FFF755FA0D48001D016841F0800191
:101F100001600A481430016841F4804101600068A2
:101F2000002200F48040059011464320FFF792FB09
:101F30004320FFF781FB07B030BD0000303802407E
:101F40000000024070B50446C068012570B1022847
:101F500001D0FEF7D5FC2946D4F8040401F00FFAAD
:101F6000D4F80404BDE8704001F0CFB90025F2E7D1
:101F7000D0F8040401F0F1B9D0F8040401F0F3B989
:101F800010B5044690F8BC0301280BD0012084F85A
:101F9000BC0384F83810206802F0BFF8002084F8F1
:101FA000BC0310BD022010BDD0F8042400F57171EF
:101FB000104601F0F0B910B50446006894F8BC135F
:101FC000012906D0012184F8BC13A16A012902D09D
:101FD00008E0022010BDA169012903D0816B41F402
:101FE00080318163206801F0DFFC206801F0C4FFCC
:101FF000002084F8BC0310BD10B50446D0F80404DA
:1020000001F008FA2068D0F8001E41F00101C0F884
:10201000001E206A002804D00248016841F0060131
:10202000016010BD10ED00E02DE9F0470E460500FF
:1020300065D0DFF81481D8F80000F7B200F00F0087
:10204000B04207D288F80070D8F8000000F00F0006
:10205000B04254D128683D4C810712D5400703D5C2
:10206000206840F4E05020602878000703D52068FD
:1020700040F4604020602068A96820F0F000084328
:1020800020602878C0072DD03049686808390128B9
:1020900012D0022813D0032811D00968890700291B
:1020A0002DDA216821F0030101432160FFF764FA72
:1020B000814641F2883A0EE009688903EFE7096832
:1020C0008901ECE7FFF758FAA0EB0901514502D965
:1020D0000320BDE8F0872068696800F00C00B0EBD1
:1020E000810FEFD1D8F80010404601F00F01B14246
:1020F00007D90770006800F00F00B04201D001203E
:10210000E7E72878400705D52068E96820F4E05023
:10211000084320602878000706D52068296920F444
:10212000604040EAC100206000F01CF82168084AC5
:10213000C1F30311515CC840064908600020FFF755
:1021400043FA0020C5E70000003C02400838024086
:10215000FC43000880000020014800687047000030
:1021600080000020154810B5006810F00C021448DB
:1021700013D04110042A0FD0082A0ED10F4C241F6F
:102180002268236802F03F025B0207D52068C0F393
:102190008810A0FB010106E0084610BD2168C1F3CC
:1021A0008811A1FB00010023FEF70AF82168C1F3A2
:1021B0000141491C4900B0FBF1F010BD0838024054
:1021C0000024F4002DE9F84F050076D02878DFF8D8
:1021D000F8B2BE4CC00749D0DBF800105846C1F336
:1021E0008101012908D00068C0F3810002280AD1CA
:1021F000201D0068400206D52068800336D5686837
:102200000028E2D032E06868B0F5803F10D0B0F529
:10221000A02F206810D020F480302060206820F4A7
:10222000802020606868A0B1FFF7A6F906460CE0A0
:10223000206840F48030F4E740F480202060F7E725
:10224000FFF79AF9801B642873D820688003F7D5BC
:102250000CE0FFF791F9064605E000BFFFF78CF9A7
:10226000801B6428F0D820688003F7D42878DFF832
:10227000608280074FF000093ED5DBF80010584619
:1022800011F00C0F09D00068C0F3810002280BD1B7
:102290008D48001F0068400206D42068800715D5CD
:1022A000E868012809D111E0E868B8B10120C8F850
:1022B0000000FFF761F9064605E002E1FFF75CF96F
:1022C000801B0228C0D820688007F7D520682969BC
:1022D00020F0F80040EAC10020600DE0C8F800904E
:1022E000FFF74AF9064604E0FFF746F9801B02288B
:1022F0001FD820688007F7D42878000722D5724EAF
:10230000744869696C3671B101210160FFF734F9D5
:10231000074604E0FFF730F9C01B022809D83068EF
:102320008007F7D50EE0C0F80090FFF725F90746C3
:1023300005E083E0FFF720F9C01B02287ED8306853
:102340008007F7D42878400768D5DFF87CA10027FC
:102350000AF1380ADAF80000C0000BD4DAF80010ED
:1023600041F08051CAF80010DAF80000012700F0AF
:1023700080500090584E3068C00510D4306840F44A
:1023800080703060FFF7F8F8009005E0FFF7F4F890
:102390000099401A022851D83068C005F6D54A4E37
:1023A000A868683601280FD00528306810D020F0C2
:1023B00001003060306820F004003060A868B8B1D7
:1023C000FFF7DAF800900FE0306840F00100F4E722
:1023D00040F004003060F7E7FFF7CEF80099411AAB
:1023E00041F28830814264D830688007F4D50EE02D
:1023F000FFF7C2F8009007E0FFF7BEF80099411A16
:1024000041F28830814254D830688007F4D42FB12B
:10241000DAF8001021F08051CAF80010A869C0B3A2
:10242000DBF80010C1F3810102294AD00228484696
:1024300007D0C8F86000FFF79FF800E039E00546D4
:102440003AE04746C8F86000FFF796F8064604E011
:10245000FFF792F8801B02282BD820688001F7D460
:10246000D5E907010843A96A1C4A490802EB014162
:102470006A6A41EA8211084395F82C1040EA01612A
:102480001148001F016001203866FFF775F8054606
:1024900005E014E0FFF770F8401B022809D8206817
:1024A0008001F7D50BE000BFFFF766F8401B02285C
:1024B00002D90320BDE8F88F20688001F4D4002001
:1024C000F8E70120F6E70000083802400038024033
:1024D00000004742800E4742007000400000FFFFAE
:1024E00010B5401EB0F1807F01D3012010BD4FF028
:1024F000E02460610F21601701F0C5FE0020A0619B
:1025000007202061002010BDFEE70000F0B5002389
:102510000A24302537261F4611E000BFB4EB107F98
:1025200002D905EB107C01E006EB107C01F813C02A
:1025300001EB430C00015B1C8CF80170DBB2934291
:10254000ECD3F0BD30B587B000241E480594069446
:10255000049400940194029419490394C0E900146E
:10256000846001250461057680F820402907C16256
:10257000C5614FF07061C460816280F83040456190
:10258000FEF7F8FB08B1FEF7BBF9172004904FF4F3
:102590000040CDE9050404A90A48FEF7C7F908B1CF
:1025A000FEF7AEF9CDE90045694606480294FEF70C
:1025B00095FA002801D0FEF7A3F907B030BD00005E
:1025C00000200140A00100207FB5002412480094A3
:1025D000019402940F490394C0E90014846001251A
:1025E0000461057680F82040C561C46080F8304001
:1025F0004561FEF7BFFB08B1FEF782F9CDE9004562
:10260000694605480294FEF769FA002801D0FEF7F2
:1026100077F97FBD00210140E80100207FB500244B
:1026200012480094019402940F490394C0E90014E5
:10263000846001250461057680F82040C561C4608E
:1026400080F830404561FEF795FB08B1FEF758F978
:10265000CDE90045694605480294FEF73FFA002897
:1026600001D0FEF74DF97FBD00220140300200206D
:1026700070B586B014216846FDF7FCFD274800249C
:10268000016841F080010160016801F0800105915D
:10269000016841F001010160016801F0010105914B
:1026A000016841F010010160016801F0100105911D
:1026B000016841F0080101600068194E00F008004F
:1026C000059000224FF201013046FEF750FFF01452
:1026D00000901448CDE9010469461348FEF768FEEE
:1026E0004FF4704000900125CDE901546946304611
:1026F0000394FEF75DFE0320CDE902400095694694
:1027000001953046FEF754FE002211462820FEF7C0
:10271000A1FF2820FEF790FF06B070BD30380240C0
:10272000000C0240000011100010024010B5002201
:102730000F49104800F0B4FC08B1FEF7E1F80E496B
:102740000C4800F08DFE08B1FEF7DAF80B49094895
:1027500000F0B2FA08B1FEF7D3F8064800F0D6FE52
:10276000002803D0BDE81040FEF7CAB810BD000035
:1027700014000020E80A002060010020640000200E
:10278000FEE770472DE9F0411546069E9846072E54
:1027900002D90020BDE8F0810844871900247F1E7B
:1027A00007E0E20041462846FDF73BFD391B641C6B
:1027B0000870B442F5DB0120ECE700000148FFF7A8
:1027C000C9B80000840D00202DE9F04104460068DE
:1027D0000E46016C00EB4615D5F8080B276920233F
:1027E0004FF40042012F08D02C4FB9424FD10104C1
:1027F00049D500BFC5F8082B4DE0DFF8A4C05FEA5B
:10280000007E04F5717711D5614503D9000401D527
:10281000C5F8082B2046FFF7C7FB3A460121206880
:1028200001F032FA0820C5F8080B34E05FEA806E48
:1028300002D5C5F8083B2EE010F0280F2BD16145DA
:1028400001D90004D6D4C6EBC60004EB8000D5F84D
:10285000102BD0F80412C2F312028A1AC0F8142204
:10286000D0F808221144C0F80812F1B22046FEF751
:1028700057FF86B9D4F8100268B93A46012120689A
:1028800001F002FA07E0800601D5C5F8083BF1B275
:102890002046FEF745FF0020BDE8F0810A31544F85
:1028A0000A30544F2DE9F84F0E46C1EBC60100EB3C
:1028B000810481460568D4E914103C34884202D969
:1028C0000120BDE8F88F081AA168814200D20846AD
:1028D000C01C870805EB46181BE000BFA0EB010AEF
:1028E000A068504500D282460AF10300870899F893
:1028F000100000901FFA8AF3F2B22846E16801F056
:10290000AFFCE16801EB0A00E060A16901EB0A009D
:10291000A061D8F8180980B2B84205D3D4E90501FE
:10292000814201D20028D9D1D4E90501884208D8D2
:1029300006F00F0101208840D5F834188143C5F80E
:1029400034180020BDE7704730B5072A02D90020AF
:10295000014630BD441800212078012306E0090219
:10296000E55C41EA106145EA00205B1C9342F6DB1E
:1029700030BD407838B1012807D0022807D003289D
:1029800007D1FDF74BBDFDF7CDBCFDF703BDFDF74E
:102990002BBD704710B5417800290FD10222114696
:1029A000FFF7D2FF064C80B2611CFDF78BFE207052
:1029B0002046BDE810400221FDF7D8BE10BD000042
:1029C000780200207047000010B5FEF7DBFD0948D3
:1029D0004179012905D10849097811B1C188491CFB
:1029E000C18006480078012803D105490888401CA9
:1029F000088010BD0C000020010000200000002015
:102A00000200002030B593B030216846FDF732FC5B
:102A100014210CA8FDF72EFC1D480025016841F08B
:102A200080510160006800F08050119019480168E1
:102A300041F4804101600068022400F4804011905C
:102A400001200090000401908001CDE9064004209F
:102A500008909020CDE9090406200B906846FFF706
:102A6000B1FB08B1FDF74CFF0CA90F2081E8310044
:102A70004FF4A0500F904FF48050109004210CA8F8
:102A8000FFF7D2FA002801D0FDF73AFF13B030BDAE
:102A900040380240007000401048016841F4700165
:102AA00001600F48016841F0010101600C4A0021FA
:102AB0000832116002680B4B1A400260031D0A4A7B
:102AC0001A60026822F48022026005480C3001601E
:102AD00002495806803908607047000088ED00E020
:102AE00000380240FFFFF6FE103000242DE9F041CF
:102AF000D0F89832D0F89022DAB101EB810400EBE3
:102B000084040025E6694EB1C1EBC10703EB8703DE
:102B10005B6CB6FBF3F703FB176323B1C2F81452E7
:102B20000020BDE8F08100231A46E56100F07BFC3F
:102B3000F6E70220F5E770B50546D0F8904200F0C0
:102B400087FBC4F80C02D5F8900248B1D5F894126E
:102B5000D4F80402CA6804F503719047002070BDE0
:102B6000022070BD70B504460026812100F0B6FA3F
:102B7000002501212046E56200F0B0FA82212046BE
:102B8000C4F8585100F0AAFA2564D4F8900248B16C
:102B9000D4F8940204F5247440688047206801F05A
:102BA00091FB2560304670BD10B5D0E9A44159B104
:102BB00094F80002FF2807D08B6894F80122214680
:102BC0009847FF2084F80002002010BD0A210180F0
:102BD000004870478800002043210180004870476A
:102BE000D800002043210180004870479400002055
:102BF00043210180004870471C0100202DE9F0416D
:102C000004460026007C4FF40077012590B3402352
:102C100002228121204600F063FB4023E56202226C
:102C20000121204600F05CFB08230322822120467C
:102C3000C4F8585100F054FB4FF40770256401F0BC
:102C4000A3FBC4F89002F8B10546D4F894020068DA
:102C500080470020C5F81402C5F81802207CD5F87A
:102C6000042298B140230121204600F045FB304664
:102C7000BDE8F081FFE73B4602228121204600F0BB
:102C80002FFB3B46E562CAE70126F0E73B46EAE751
:102C900010B5D0F8901269B1027C002AD1F8042254
:102CA00005D04023012100F027FB002010BD4FF488
:102CB0000073F7E7022010BD02460220002902D06F
:102CC0000020C2F894127047D0F89002C0F80412A5
:102CD00000207047D0F89002C0F81022C0F8081207
:102CE000002070472DE9FC410546D0F89072002085
:102CF0008DF80000ADF80400064608780C4610F088
:102D0000600121D020293BD1E288AAB10006607879
:102D100007D5D5F894128B6839469847E28839462A
:102D200026E087F80002A07987F80102E288394698
:102D3000284600F06AF828E0D5F89412607800225E
:102D40008B682146984720E0607820B10A2809D096
:102D50000B2815D110E095F87402032810D1022237
:102D600001A905E095F87402032809D101226946FA
:102D7000284600F064F808E095F87402032804D0AF
:102D80002146284600F036F802263046BDE8FC8190
:102D900010B5D0F89012A1B1D1F814220AB10120D7
:102DA00010BD0122C1F81422D1F810220263B1F83B
:102DB000102293B2D1F80822812100F034FB0020C8
:102DC00010BD022010BD10B5D0F88C22526890477B
:102DD000002010BD134610B50A46002100F08CFA01
:102DE000002010BD134610B50A46002100F01BFB61
:102DF000002010BD10B50446802100F0F9FA2046ED
:102E0000BDE81040002100F0F3BA10B50323C0F86C
:102E10004821C0F86C32C0F84C2113460A46002104
:102E200000F06AFA002010BD10B505210023C0F89B
:102E30006C121A46194600F05FFA002010BD10B55A
:102E40000223C261C0F86C32026213460A460021B6
:102E500000F0E9FA002010BD10B504210023C0F8ED
:102E60006C121A46194600F0DEFA002010BD000070
:102E700010B50A46024903A000F0E2F8004810BD70
:102E80008C11002043444320436F6E666967000045
:102E900012200880004870473400002010B50A4610
:102EA000024903A000F0CCF8004810BD8C110020AE
:102EB00043444320496E7465726661636500000097
:102EC00004200880004870473000002010B50A46F2
:102ED000024903A000F0B4F8004810BD8C11002096
:102EE00053544D6963726F656C656374726F6E697C
:102EF0006373000010B50A46024903A000F0A0F871
:102F0000004810BD8C11002053544D3332205669B7
:102F1000727475616C20436F6D506F7274000000A5
:102F200010B51A2008800A480168001D0468001DB9
:102F30000068081809D008220649FFF7E7FA054992
:102F4000042210312046FFF7E1FA0248801E10BD2E
:102F5000107AFF1F4A000020F8B5044648880D4645
:102F6000010A08294BD2DFE801F04A0409174A4A4E
:102F70004048D4F88812207C0A6832E0207C02267F
:102F80000028D4F88C0205D0C16A684688470146FB
:102F9000467041E0816AF8E7C0B206282FD2DFE828
:102FA00000F003080D12171CD4F88812207C4A6820
:102FB00017E0D4F88812207C8A6812E0D4F88812CE
:102FC000207CCA680DE0D4F88812207C0A6908E0E9
:102FD000D4F88812207C4A6903E0D4F88812207C57
:102FE0008A6969469047014616E0207C38B9D4F8D2
:102FF0008C02416B68468847F5E7207C20B1294662
:103000002046FFF7F7FEF8BDD4F88C02016B684646
:103010008847014607204870BDF8000048B1EA889B
:1030200052B1824200D90246ADF800202046FFF797
:1030300006FFE8880028E6D12046FFF70DFFF8BD1F
:1030400070B5002300281ED00446002502E06D1C48
:10305000EDB2641C2678002EF9D1022404EB45045D
:1030600014801278CA545B1C0322CA5400245B1CCF
:1030700006E0CA545B1CDAB28C54521CD3B2401C1A
:103080000278002AF5D170BD01004FF0000004D095
:10309000012901D0022901D0022070470120704788
:1030A00010B580B1D0F88C3213B10023C0F88C3247
:1030B00009B1C0F88812012180F87412027000F082
:1030C000CBF8002010BD022010BD10B5D0F898023A
:1030D000FEF75AFBBDE81040FFF7D6BF10B5D0F899
:1030E0009802FEF72BFBBDE81040FFF7CDBF2DE99E
:1030F000F0411746044651B1D4F88C0242691AB126
:1031000094F87402032851D00220BDE8F081D4F86D
:103110006C32002504F11400022B03D0042B3AD0AA
:10312000C3B33CE0D0E903639E4207D9F11AC16002
:103130008AB239462046FFF755FE12E08068B0FBA0
:10314000F3F103FB110199B9984211D3D4F870122D
:1031500088420DD2002211462046FFF743FEC4F8F4
:10316000705200231A461946204600F0C5F816E0B2
:10317000D4F88C02C16829B194F87402032801D1F3
:10318000204688478021204600F032F92046FFF78C
:103190004BFE04E0FFE78021204600F029F994F877
:1031A0007802012804D184F8785201E02046904743
:1031B0000020AAE770B51546044649B1D4F88C0240
:1031C00082691AB194F87402032830D0022070BDCD
:1031D000D4F86C1204F5A070032902D005291ED082
:1031E00027E0D0E903218A420BD9531AC36008466D
:1031F000834200D303469AB229462046FFF7EAFDF0
:1032000017E0D4F88C02016929B194F874020328FC
:1032100001D1204688472046FFF71EFE09E0002026
:103220000146C4F86C02204600F0E2F801E02046B6
:103230009047002070BD0020704710B5012180F834
:103240007412D0F88C22017952689047002010BD8A
:10325000D0F89802FEF7C6BA10B5017841BB1549FF
:103260000222C1F80404C0F898124FF0A040086090
:10327000042048600020C1E90320C1E9062008625B
:1032800001224862C1E90B200846FEF79DFD08B106
:10329000FDF736FB80210748FEF70FFA4022002198
:1032A0000448FEF70EFA802201210248FEF709FACF
:1032B000002010BD840D00200A0601F07F01D0F827
:1032C0009802C1EBC10100EB810002D590F83E00ED
:1032D000704790F8FE01704700207047002070474B
:1032E00010B51C461346D0F898022246FEF783FA22
:1032F000BDE81040FFF7C8BE10B5D0F89802FEF741
:10330000AAFABDE81040FFF7BFBE70B50022044620
:1033100040231146FFF7E4FF40260125C4F8506121
:103320003346002280212046C4F84451FFF7D8FFDD
:103330006662A56184F874520020C4F86C02606073
:10334000C4F87C02D4F8900228B1D4F88C02002191
:10335000426820469047002070BD90F8751280F8B2
:1033600074120020704710B590F87412032904D12C
:10337000D0F88C12C96901B18847002010BD0174D2
:103380000020704710B5D0F89802FEF7F9FDBDE8AF
:103390001040FFF779BE70B5044600F52070054671
:1033A00000F04AF80120C4F86C02B4F88602C4F8B0
:1033B000700294F8800210F01F010AD001290DD08C
:1033C000022910D000F08001204600F011F8002002
:1033D00070BD2946204600F09EF8F8E729462046B1
:1033E00000F0CAF9F3E72946204600F01DF9EEE7A0
:1033F00010B5D0F89802FEF752FABDE81040FFF77A
:1034000043BE10B5D0F89802FEF7D5FDBDE81040D8
:10341000FFF73ABE90F8741280F87512042180F814
:1034200074120020704710B5D0F89802FEF771FAB8
:10343000BDE81040FFF728BE0A7802704A78427053
:103440008A78CB7802EB032242800A794B7902EB2F
:10345000032282808A79C97902EB0121C1807047F9
:103460000246002011B1C2F88C127047022070474A
:1034700010B5D0F88C2202241AB11268904700B916
:103480000024204610BD000070B50E461E4D897800
:1034900004462970012931D894F8740202280BD00F
:1034A00003280FD031462046FFF7A4FC2978204698
:1034B000BDE87040FFF787BCD9B10320616084F894
:1034C000740209E071B16068884212D0C1B220462E
:1034D000FFF779FC297861602046FFF7C9FF0228D1
:1034E0000CD006E0022084F8740220466160FFF7E9
:1034F0006AFC2046BDE87040FFF7AEBC314620466E
:10350000BDE87040FFF776BC8400002010B5FFF7DF
:1035100078FF002010BD2DE9F0410A78002612F056
:10352000600208D0202A01D0402A70D1D0F88C2225
:10353000926890476DE04B78002201250A2B66D2F5
:10354000DFE803F0405D6557650805652C29FFF746
:1035500003FD5EE004468888D8B9C888C8B94888A1
:10356000802816D200F07F0794F87402032810D048
:1035700084F8767239462046FFF704FF2046FFF7AD
:103580006BFC1FB1022084F8740242E084F874528C
:103590003FE020463BE0FFF777FF3AE0CB88012B86
:1035A00035D190F87432012B04D0022B02D0032BBA
:1035B0002DD104E08260012200F1080116E0012211
:1035C000011D13E090F87422012A03D0022A01D0D1
:1035D000032A1CD1CA88022A19D1C560D0F87C12EE
:1035E00009B10321C160022200F10C01FFF727FCA1
:1035F0000FE0498801290CD1C0F87C5211E090F805
:103600007432012B08D0022B06D0032B04D0FFF715
:10361000F1FB3046BDE8F08149880129F9D1C0F8B5
:103620007C22FFF719FCF4E72DE9F0410A46044635
:1036300010780027097910F060030AD0202B01D000
:10364000402B50D1D4F88C0211468368204698470D
:103650008FE0C0F34110012806D05078D0B3012884
:103660002AD003283FD107E0D4F88C0211468368A2
:103670002046BDE8F041184794F87402022802D0B1
:10368000032872D10AE071B380296ED02046FFF77B
:10369000AFFE80212046FFF7ABFE6AE0508838B9C4
:1036A00031B1802904D0D08810B92046FFF7A0FEA0
:1036B0002046FFF7D1FB5CE094F874020228E2D0C8
:1036C000032852D1508898BB4806F1D02046FFF716
:1036D000FCFCEDE7FFE794F874020026022803D013
:1036E000032842D112E040E009B180293DD108060B
:1036F00001F07F0000EB800004EB800101D5143164
:1037000001E001F5A07102220E602AE0080601F036
:103710000F0000EB800004EB80000AD5806920B325
:1037200001F07F0000EB800004EB800514350BE016
:103730001FE0D0F84401C0B101F07F0000EB800031
:1037400004EB800505F5A07541B1802906D020461F
:10375000FFF7B2FD10B10120286000E02E600222C8
:1037600029462046FFF76BFB03E011462046FFF792
:1037700041FB3846BDE8F08170B5054608780C4637
:1037800010F0600003D0202801D0402816D195F811
:103790007402012803D0022801D003280ED1207919
:1037A00001280BD8D5F88C02826828469047E1881A
:1037B000014306D12846FFF74FFB02E02846FFF7FA
:1037C00019FB002070BD000070B50A78012302F0DB
:1037D0000F054E78AB401B4CD0F81C58012E17D06B
:1037E00045EA0343C0F81C3800EB4210D0F8002B28
:1037F00012040BD4D0F8002B0B89C978C3F30A0349
:103800001A4344EA81410A43C0F8002B002070BDEE
:103810009BB21D43C0F81C5800EB4210D0F8003991
:103820001B04F3D4D0F800390D89C978C5F30A0513
:1038300089042B4341EA82510B432343C0F80039EA
:10384000E4E7000000800010D0F800196FF30A01CF
:10385000C0F80019D0F80818C1F34101022905D1B8
:10386000D0F8001941F00301C0F80019D0F804188D
:1038700041F48071C0F804180020704770B5044608
:1038800006990A9E049D0D98012916D0E06840F023
:103890004000E060204600F02BF8A16B1EB321F43D
:1038A0008031A163012D07D1A16841F00601A1601B
:1038B000A16841F02001A16070BDA16B21F48031AD
:1038C000A163E168094A1140E160E16821F4401117
:1038D000E160012803D1E06840F48010E0602046F8
:1038E00000F006F8DEE741F48031DAE7BFFFBDFF04
:1038F00001220C4902E0521C8A420BD80369002BBA
:10390000F9DA026942F001020261012204E0521C6C
:103910008A4201D9032070470369DB07F7D10020F1
:1039200070470000400D030030B50B784D78012240
:1039300003F00F0402FA04F4012DD0F83C5817D01C
:1039400025EA0444C0F83C48D0F81C48097801F046
:103950000F018A4024EA0241C0F81C1800EB431012
:10396000D0F8001B0E4A1140C0F8001B002030BDEB
:10397000A4B2A543C0F83C58D0F81C48097801F01F
:103980000F018A4091B28C43C0F81C4800EB4310F1
:10399000D0F80019034A1140C0F80019E6E700000A
:1039A0000078F3EF007833EC10B5D0F8041821F06C
:1039B0000201C0F804180320FDF7DAFC002010BD56
:1039C00010B5D0F8041841F00201C0F80418032023
:1039D000FDF7CEFC002010BD2DE9F04F0025DDE9FC
:1039E0000BCB0E460446DDF84090099F2846294639
:1039F00004EB8002C2F80411401C0F28F8D3B9F17F
:103A0000000F204618D0006820F400122260A06B3E
:103A100040F40022A26308468846C4F8000ED4F899
:103A200000182046C4F80018BCF1010F10D0D0F8DF
:103A3000001841F0030110E0806B40F40012A26313
:103A4000A06B20F40022A263A06B20F48022E1E7A7
:103A5000D0F800180BB141F00101C0F80018102196
:103A600000F0A0FA00B10125204600F08BFA00B169
:103A700001254046C4F81088C4F81488C4F81C888E
:103A800000214FF000634FF090484FF67F3A14E06A
:103A900004EB4112D2F800C9BCF1000F06DA11B1F3
:103AA000C2F8008904E0C4F8003901E0C2F8000956
:103AB000C2F81009C2F808A9491C8E42E8D80021B2
:103AC00015E000BF04EB4112D2F800CBBCF1000FAF
:103AD00006DA11B1C2F8008B04E0C4F8003B01E043
:103AE000C2F8000BC2F8100BC2F808AB491C8E429A
:103AF000E8D8D4F8101821F480722146C4F81028B0
:103B0000012F08D1134AC1F83028D1F83018124AD1
:103B10001143C4F83018A0616FF0804060611FB994
:103B2000A06940F01000A061A0690C490843A061A1
:103B3000BBF1000F03D0A06940F00800A061B9F10B
:103B4000010F03D1A06906490843A0612846BDE8DA
:103B5000F08F0000000180000300010000383C806D
:103B600004000040816821F001018160002070475D
:103B700070B50D784E78434CEBB200EB4313012E39
:103B80001FD0D3F8100B6FF31200C3F8100BD3F84B
:103B9000100B2040C3F8100B486908B188684861D1
:103BA000D3F8100B40F40020C3F8100BD3F8100B1F
:103BB0008C68C4F312042043C3F8100B012A55D0BB
:103BC00058E04E69002ED3F8106932D06FF3120618
:103BD000C3F81069D3F810692640C3F810694E691C
:103BE0008C68A64200D94C61D3F8104944F40024F3
:103BF000C3F81049D3F810494E69C6F3120634438E
:103C0000C3F81049012A22D000EB4512D2F800393E
:103C100043F00443C2F800394A6932B3D0F834287B
:103C2000097801F00F03012199400A43C0F83428B4
:103C300026E02640C3F81069D3F8104944F4002464
:103C4000C3F81049D3F810496FF31204D8E7096993
:103C500019B100EB4512C2F8141900EB4510D0F869
:103C6000001941F00441C0F8001909E0C86808B122
:103C7000C3F8140BD3F8000B40F00440C3F8000B5A
:103C8000002070BDFFFF07E010B5036C134CA3428A
:103C900003D9D0F8003B002B1EDB0023C0F8103BFB
:103CA000D0F8103B43F40023C0F8103BD0F8103B91
:103CB00043F01803C0F8103BD0F8103B43F0C0436A
:103CC000C0F8103B012907D1C0F8142BD0F8001B15
:103CD00041F08021C0F8001B002010BD0A30544F75
:103CE0004A780B78012A00EB43100BD0D0F8002B58
:103CF00022F40012C0F8002BC978032914D002293D
:103D000012D017E0D0F8002922F40012C0F80029E0
:103D1000C978032901D002290CD1D0F8001941F04B
:103D20008051C0F8001905E0D0F8001B41F0805127
:103D3000C0F8001B002070470A784B78D1B200EB26
:103D40004110012B12D0D0F8001B002906DB2AB14C
:103D5000D0F8001B21F08041C0F8001BD0F8001BF8
:103D600041F40011C0F8001B00207047D0F8001982
:103D7000002906DB2AB1D0F8001921F08041C0F8F3
:103D80000019D0F8001941F40011C0F80019EBE750
:103D9000F8B50C784F78774DE3B26FF0604600EBE2
:103DA0004313012F26D0D3F8104B6FF31204C3F83E
:103DB000104BD3F8104B2C40C3F8104B4C69002C1F
:103DC00074D08D682C44641EB4FBF5F4D3F8105BFA
:103DD000A4B206EAC4463543C3F8105BD3F8105BBF
:103DE0008E686643C6F312042543C3F8105B012AAC
:103DF00071D0A6E04F691FB3D3F810796FF31207A3
:103E0000C3F81079D3F810792F40C3F810794F69AF
:103E10008D682F447F1EB7FBF5F506EAC545D3F83C
:103E200010693543C3F81059D3F810594E69C6F3D9
:103E300012063543C3F81059CD78012D10D01BE080
:103E4000D3F810692E40C3F81069D3F8105945F41F
:103E50000025C3F81059D3F810596FF3120509E083
:103E6000D3F8105925F0C045C3F81059D3F81059AC
:103E700045F00055C3F81059012A18D000EB44133F
:103E8000D3F8004944F00444C3F80049CC78012C2D
:103E90002FD04A6962B3D0F83428097801F00F03B3
:103EA000012199400A43C0F8342860E036E00A69ED
:103EB0001AB100EB4413C3F81429C97801290FD1B2
:103EC000D0F80818C90500EB4411D1F8002903D433
:103ED00042F0005202E030E042F08052C1F8002986
:103EE00000EB4410D0F8001941F00441C0F800196B
:103EF0003DE0D0F80848E405D3F8004902D444F086
:103F0000005401E044F08054C3F8004900928A8ACA
:103F100093B20A78C96800F0A3F928E0D3F8104BEF
:103F20008D68C5F312052C43C3F8104BD3F8104B22
:103F300044F40024C3F8104B59E7CA680AB1C3F827
:103F4000142BC97801290CD1D0F80808C005D3F882
:103F5000000B02D440F0005001E040F08050C3F864
:103F6000000BD3F8000B40F00440C3F8000B002016
:103F7000F8BD0000FFFF07E0816841F001018160AA
:103F800000207047002110220261054A491C91421D
:103F900001D9032070470369DB06F7D4002070477E
:103FA000400D03000022202343EA811101610549ED
:103FB000521C8A4201D90320704703699B06F7D43B
:103FC00000207047400D0300D0F8080810F00600EC
:103FD00004D0022803D0062801D00F207047022009
:103FE0007047406900F00100704700002DE9FC4770
:103FF0001E48C068002836D000252F461C4E1D4C98
:104000004FF0A5084FF005091EE0B06850B184F8E4
:10401000008084F80190A07003211648FCF7A6FBED
:10402000B76010E09DF80000552809D095280AD007
:10403000A52808D0AA2806D16846FEF79AFC02E017
:104040006846FEF7A7FC6D1C082269460748FCF786
:10405000A9FB0128D9D0952020706770A570032195
:104060000448FCF783FBBDE8FC870000780A0020C9
:104070000000002078020020D0F81818D0F81C08A2
:10408000084080B27047D0F81818D0F81C080840D3
:10409000000C704710B5D0F81038D0F8342801F073
:1040A0000F0400EB4110E24002F00102D0F80809D1
:1040B00043EAC212104010BD00EB4111D1F8081BB9
:1040C000D0F814080840704741698069084070477B
:1040D000D21C10B59308002200F5805002E004685D
:1040E000521C10C19A42FAD3084610BD10B5C268DE
:1040F00022F0C042C260012902D029B1012010BDC6
:10410000C16841F0005102E0C16841F08041C160E6
:104110003220FDF72DF9002010BDD0F8002822F440
:10412000FE62C0F80028D0F800284FF4FE6303EACE
:1041300001110A43C0F8002800207047022A3ED12E
:10414000264A274B0A449A4201D20F2138E0254AD9
:10415000254B0A449A4201D20E2131E0234A244BD6
:104160000A449A4201D20D212AE0224A224B0A44F3
:104170009A4201D20C2123E0204A214B0A449A4260
:1041800001D20B211CE01F4A1F4B0A449A4201D264
:104190000A2115E01D4A1E4B0A449A420FD31D4ABC
:1041A0001D4B0A449A4201D2082109E01B4A1144DE
:1041B0001B4A914201D2072102E0062100E00921B9
:1041C000C26822F47052C260C2684FF4705303EAAE
:1041D00081210A43C260002070470000405327FF3E
:1041E00000350C00401E1BFF40420F0000DC0BFF9F
:1041F000804F1200808CF9FE20D6130060B6E5FED9
:1042000060E3160000D3CEFE40771B00C05BB3FE18
:10421000C091210000CA91FE20753800E05459FE7B
:10422000E09C41002DE9F0410C4C07460120207034
:104230000E463846FCF79AFA002509E03146384622
:10424000FCF794FA6188642902D92570BDE8F081F1
:104250000028F3D128462570F8E700000000002070
:1042600010B5029C64B9DB1C9C0800EB02300023F3
:1042700000F5805002E004C902605B1CA342FAD33F
:10428000002010BDFEE70907090E002804DB00F13D
:10429000E02080F80014704700F00F0000F1E020EB
:1042A00080F8141D704702E008C8121F08C1002AD8
:1042B000FAD170477047002001E001C1121F002AA7
:1042C000FBD1704710B5002821D0114B0022001FF0
:1042D000196803E0814203D80A4649680029F9D1E8
:1042E00052B11368841A9C4204D1006818441060CB
:1042F000104602E0506000E0186039B102680B1A05
:10430000934203D10B681A4402604968416010BDB2
:104310009801002008B50A211848FCF73DFA502002
:1043200000F032F8164908600020087148710C3915
:104330004870FDF72FF9FEF765FBFEF799F9114874
:10434000016841F4800101600068002200F48000EF
:10435000009011463820FDF77DF93820FDF76CF903
:10436000FEF7F0F8FEF730F9FEF758F9FEF7DEF940
:10437000FCF768F8FFF73AFEFAE70000780A002039
:104380000C00002030380240F0B50B30154D20F005
:1043900007010024144A0FE003688B420BD38B42C1
:1043A00005D95E1A43184768C3E9006700E043680F
:1043B000136002C004E0021D10680028ECD1204602
:1043C000002802D1286808B10020F0BD064A07483D
:1043D0001060074A121A22F00702C0E900240120E7
:1043E0002860D7E79C01002098010020942300203A
:1043F0009033002000061016000610160000000082
:104400000000000001020304060708092C4400080C
:1044100000000020A0010000CC020008F0440008C9
:10442000A0010020F0410000B642000841F228132C
:10443000912E1B08C1041ACD041AF50413212F1B59
:104440000871081A9D0417040309041201140202DA
:1044500002164083044057260201020301031A1A80
:10446000031319071B0813041A0F041A3D04192F0C
:104470001182105324F4130A0632022A401C1C092C
:104480000243571125C03209041B01020B130524F6
:104490001610010524011009010424020205240656
:1044A000170107058203081C1009048D320A1D0735
:1044B000050102432C070581070938442A40072AD1
:1044C0008107112B0907440A3B044413FD2B1B08E9
:1044D000650413E52C42081AA90C13ED2A1B0837B2
:1044E00008C11AE5101AD9041AF1049ACD1C00006B
:040000050800018965
:00000001FF
